:1000000075EF10F00000000000EF00F000000000AD
:0A0010000000000000000000F3D71C
:10001C000B820BAE18EF00F00368026801680068F1
:08002C000A360232FF0E120039
:0E003400026A016A006A086A036A000E12007E
:080042000AAE029E000E12003E
:10004A000B840BAE30EF00F0010E036E026A016AF8
:0A005A00006A0A360232FF0E12009F
:100064000CB074EF00F00CA21AEF01F00E6A000E4F
:1000740002648BEF00F0F00E0214D8A456EF00F0E7
:10008400023A01380F0B02260138F00B016E0038DA
:100094000F0B01260038F00B006E08380F0B0026FA
:1000A4000838F00B086E0E84D89002BE6FEF00F093
:1000B40008360036013602360E2A02BE6FEF00F013
:1000C40008360036013602360E2A02BE6FEF00F003
:1000D40008360036013602360E2A0E50036410EF3D
:1000E40001F0035E0BBC08AE15EF01F0D880800E62
:1000F40008640030000E002201220222D8A015EF6D
:1001040001F0023201320032034A1AEF01F015EF16
:1001140001F001C002F000C001F008C000F0086A5C
:10012400000E0E860264C2EF00F0F00E0214D8A492
:10013400AAEF00F0023A01380F0B02260138F00B47
:10014400016E00380F0B01260038F00B006E0E8490
:10015400D89002BE6FEF00F00036013602360E2A48
:1001640002BE6FEF00F00036013602360E2A02BEE0
:100174006FEF00F00036013602360E2A6FEF00F002
:1001840001C002F000C001F0006A000E0E960E8855
:100194000264EFEF00F0F00E0214D8A4DAEF00F0DE
:1001A400023A01380F0B02260138F00B016E0E845F
:1001B400D89002BE6FEF00F0013602360E2A02BE5E
:1001C4006FEF00F0013602360E2A02BE6FEF00F028
:1001D400013602360E2A6FEF00F001C002F0016A08
:1001E400000E0E8602641FEF01F0F00E0214D8A474
:1001F400FEEF00F0023A0E84D89002BE6FEF00F0DA
:1002040002360E2A02BE6FEF00F002360E2A02BE3C
:100214006FEF00F002360E2A6FEF00F0010E0C6E45
:1002240012DF22EF01F0020E0C6E09DF22EF01F063
:10023400040E0C6EF1DE22EF01F0080E0C6EF8DEF7
:020244001200A6
:100246000B800BAE2FEF01F0026A0AAEFF0E026EB4
:0C025600016E006E0A360232FF0E12002C
:10026200025006180E6E086A096A0B6A0350076488
:1002720024EF02F006500A6E068E028E03500B6EB9
:100282000750036E000E0B6474EF01F00B50075E13
:10029200D8B415EF02F0070E0764E3EF01F0075E32
:1002A20000C008F001C000F002C001F0026A074E6F
:1002B20015EF02F00764B8EF01F0075E00C008F026
:1002C20001C000F0016A074E15EF02F0076496EFD5
:1002D20001F0075E00C008F0006A074E15EF02F059
:1002E20007647DEF01F00AC002F005C001F004C00E
:1002F20000F0086A3EEF03F0030E076488EF01F096
:10030200075E08380F0B086E074E15EF02F0D89003
:100312000832074E15EF02F0D8900832074E15EF5B
:1003220002F0D890083215EF02F0030E0764A7EF2F
:1003320001F0075E08380F0B086E0038F00B082634
:1003420000380F0B006E074E15EF02F0D890003206
:100352000832074E15EF02F0D89000320832074EED
:1003620015EF02F0D8900032083215EF02F0030EBA
:100372000764CFEF01F0075E08380F0B086E0038F4
:10038200F00B082600380F0B006E0138F00B002628
:1003920001380F0B016E074E15EF02F0D8900132B3
:1003A20000320832074E15EF02F0D89001320032C7
:1003B2000832074E15EF02F0D890013200320832AF
:1003C20015EF02F0030E076400EF02F0075E083833
:1003D2000F0B086E0038F00B082600380F0B006E6A
:1003E2000138F00B002601380F0B016E0238F00BBA
:1003F200012602380F0B026E074E15EF02F0D8905D
:100402000232013200320832074E15EF02F0D89064
:100412000232013200320832074E15EF02F0D89054
:100422000232013200320832096A000E0EAE09EFC2
:1004320003F0081E001E011E021E082A00220122CD
:10044200022209EF03F00750D8A42AEF02F03EEF90
:1004520003F0096A02C00AF0028E068E0750035C9E
:10046200076ED8B4FCEF02F0070E0764CAEF02F081
:10047200075E0450096E0550046E0650056E066A4A
:10048200074EFCEF02F0070E07649FEF02F0075ED3
:100492000450096E0550046E056A074EFCEF02F027
:1004A200070E07647DEF02F0075E0450096E046ACE
:1004B200074EFCEF02F0070E076464EF02F00AC079
:1004C20002F03EEF03F0030E07646FEF02F0075EE7
:1004D20009380F0B096E074EFCEF02F0D890093273
:1004E200074EFCEF02F0D8900932074EFCEF02F003
:1004F200D8900932FCEF02F0030E07648EEF02F08F
:10050200075E09380F0B096E0438F00B0926043810
:100512000F0B046E074EFCEF02F0D8900432093242
:10052200074EFCEF02F0D89004320932074EFCEF7E
:1005320002F0D89004320932FCEF02F0030E076495
:10054200B6EF02F0075E09380F0B096E0438F00BA4
:10055200092604380F0B046E0538F00B0426053803
:100562000F0B056E074EFCEF02F0D89005320432F5
:100572000932074EFCEF02F0D890053204320932FC
:10058200074EFCEF02F0D890053204320932FCEF3C
:1005920002F0030E0764E7EF02F0075E09380F0B63
:1005A200096E0438F00B092604380F0B046E053867
:1005B200F00B042605380F0B056E0638F00B0526E6
:1005C20006380F0B066E074EFCEF02F0D89006328B
:1005D200053204320932074EFCEF02F0D89006329F
:1005E200053204320932074EFCEF02F0D89006328F
:1005F200053204320932086A000E0EAE09EF03F02A
:10060200091E041E051E061E092A042205220622B0
:1006120009500826045000220550012206500222E9
:100622000EBE20EF03F0D8A02FEF03F0023201320A
:1006320000320832033E2FEF03F039EF03F0D8B057
:1006420034EF03F0000E081E001E011E021E082ACF
:100652000022012202220A7E34EF03F0010E0C6E08
:1006620000DD40EF03F0020E0C6EFBDC40EF03F006
:10067200040E0C6ED2DC40EF03F0000E0C6E120082
:06068200067EEEDD120011
:10068800086A096A000E07620364C9EF03F00250A2
:1006980006180A6E075003267E0ED8A05AEF03F0FC
:1006A800035ED8B0CDEF03F05EEF03F0035ED8A091
:1006B800D1EF03F0028E068E02C00EF001C00BF0DF
:1006C80000C00DF000500402F4CF0CF001500502F8
:1006D800F4CF00F0F3CF08F00402F3500C26F450E6
:1006E8000822000E00220D500502F3500C26F4508B
:1006F8000822000E002202500402F3500826F4508B
:10070800002202500502016A000E0122F350002661
:10071800F45001220D500602F3500826F45000222E
:10072800026A000E012202220B500602F350002634
:10073800F4500122000E02220E500602F350012648
:10074800F450022202BEB1EF03F00836003601363B
:1007580002360306D8B4D1EF03F0C4EF03F0D88013
:10076800800E08640030000E002201220222D8A068
:10077800C4EF03F0023201320032034ACDEF03F036
:100788000AAE029E000ED3EF03F0010E4FDCD3EF4A
:1007980003F0020E3FDCD3EF03F0040E52DC12002C
:1007A8000A6A0350D8A40A800750D8A40A820A50BB
:1007B800D8B437EF04F0030AD8B4F0EF03F00AB066
:1007C800EBEF03F006AE35EF04F033EF04F002AEC2
:1007D80033EF04F035EF04F00250800B0A6E029EEE
:1007E8000650800B069E0A18D8B401EF04F00A5090
:1007F800D8B433EF04F035EF04F00750035CD8B4F5
:100808000BEF04F0D8A027EF04F02DEF04F006500A
:10081800025CD8B415EF04F0D8A027EF04F02DEF50
:1008280004F00550015CD8B41FEF04F0D8A027EFFE
:1008380004F02DEF04F00450005CD8B437EF04F056
:10084800D8B02DEF04F00A52D8B435EF04F033EFE6
:1008580004F00A52D8B433EF04F035EF04F0D8802E
:0E0868001200D8901200D880D884120012001E
:100876000B6A0C6A086A0350D8B4BFEF04F002C0D2
:100886000AF0028E9E0E035E03AEAFEF04F0036C19
:10089600080E035CD8A07CEF04F0036E083600C097
:1008A60008F001C000F002C001F0026A080E035C05
:1008B600D8A07CEF04F0036E083600C008F001C033
:1008C60000F0016A080E035CD8A07CEF04F0036E0A
:1008D600083600C008F0006A080E035CD8A07CEF5A
:1008E60004F0036E0836086A0350D8A4D89088EF3F
:1008F60004F00350D8B488EF04F0D89002320132E5
:1009060000320832032E80EF04F00BBC08A099EFEA
:1009160004F0D8A099EF04F0082AD8B4002AD8B475
:10092600012AD8B4022A02BEC3EF04F00AAEBFEF12
:1009360004F0021E011E001E081E082AD8B4002A52
:10094600D8B4012AD8B4022ABFEF04F0026A016AB9
:10095600006A086ABFEF04F00B800BAEC9EF04F023
:10096600026A0AAEC9EF04F0026E016E006E086EEE
:100976000A360232C9EF04F00C6A000ECAEF04F020
:10098600010E0C6E000E5CDCCAEF04F0FF0E025086
:10099600036E0150026E0050016E0850006E120088
:1009A6000050086E0150006E0250016E0350026E38
:1009B600036A0B6A0C6A9E0E036E0A6A02AEF0EFB9
:1009C60004F0081E001E011E021E082AD8B4002AC2
:1009D600D8B4012AD8B4022A0A8E020E0C6E32EC62
:0409E60000F012000B
:0809EA000B6A0B86FF0E1200E0
:0A09F200530E0D6E0D2EFED71200FD
:1009FC00D2C100F0016A026A036AFF0E0016000EF3
:100A0C00011600C0D7F101C0D8F17F0E005C026E58
:100A1C00000E0158036E02C0D7F103C0D8F1800E4E
:100A2C000318006E800E005C02E1000E025C21E2F5
:100A3C00046A056A066A076ACFC100F0D0C101F0EA
:100A4C00D1C102F0D2C103F0A9DE010ED8B0000E64
:100A5C00006E005209E0000E006E000E016E800E5A
:100A6C00026E7F0E036E1200006A016A026A036A4C
:100A7C0012000101000E006ED851005C02E1D7514A
:100A8C00180809E2CFC100F0D0C101F0D1C102F0C9
:100A9C00D2C103F01200CFC100F0D0C101F0D1C11E
:100AAC0002F0D2C103F0E1DE78DF00C0D3F101C067
:100ABC00D4F102C0D5F103C0D6F100C004F001C0DE
:100ACC0005F002C006F003C007F0CFC100F0D0C1A2
:100ADC0001F0D1C102F0D2C103F060DE010ED8B03A
:100AEC00000E006E005212E0000E046E000E056E39
:100AFC00000E066E7F0E076ED3C100F0D4C101F05C
:100B0C00D5C102F0D6C103F0B6DD1200D3C100F09E
:0E0B1C00D4C101F0D5C102F0D6C103F0120021
:0C0B2A00000000000000000000001200AD
:100B3600240E0C6EB50E0D6E0D2EFED70C2EFCD7A8
:060B460000000000120097
:100B4C000450000A12E10550000A0FE10650000A99
:100B5C000CE10750000A09E1FF0E006EFF0E016E5A
:100B6C007F0E026EFF0E036E1200086A096A0750B0
:100B7C00D8B451EF06F00350D8B455EF06F002503C
:100B8C0006180A6E028E068E0E6A02C008F001C0AC
:100B9C000CF000C00DF004500D5E0550D8A0053CC3
:100BAC000C5E0650D8A0063C085E086A0C6A0D6AFA
:100BBC00D8A0E8EF05F0D8900232013200320832AA
:100BCC00010E0E6E0750035ED8A0F5EF05F07E0EF9
:100BDC000E240326D8B05AEF06F0FBEF05F07E0E7C
:100BEC000E240326D8A05FEF06F0180E0B6E0D3600
:100BFC000C3608360036013602360E360450005ECE
:100C0C000550D8A0053C015E0650D8A0063C025EFB
:100C1C0006340E120EA016EF06F00D8021EF06F032
:100C2C00045000260550D8B0053C01260650D8B01B
:100C3C00062802260D900B2EFDEF05F047EF06F06F
:100C4C00D8900036013602360E360450005E055040
:100C5C00D8A0053C015E0650D8A0063C025E0634C6
:100C6C000E10010B0D26D8B00C2AD8B4082AD8A423
:100C7C0047EF06F008320C320D32032AD8B45AEF83
:100C8C0006F00AAE089E0850026E0C50016E0D5014
:100C9C00006E62EF06F0010EA2DE62EF06F0020EAD
:100CAC001AEC00F062EF06F0040E0EEC00F062EFAE
:0A0CBC0006F0080E25EC00F012000F
:100CC600D6C100F0D7C101F0000E0101D7BFFF0E5B
:100CD600026E036E00360090013602360336003689
:100CE6000090013602360336D3510024F66ED451F5
:100CF6000120F76ED5510220F86E0900F5CFD8F124
:100D06000900F5CFD9F10900F5CFDAF10900F5CFE1
:100D1600DBF1D651D71148E0CFC100F0D0C101F0C8
:100D2600D1C102F0D2C103F0D8C104F0D9C105F097
:100D3600DAC106F0DBC107F0A4DC010ED65F000EB7
:100D4600D75BD6C104F0D7C105F0000ED7BFFF0EA2
:100D5600066E076E043604900536063607360436E8
:100D66000490053606360736D3510424F66ED45160
:100D76000520F76ED5510620F86E0900F5CF04F070
:100D86000900F5CF05F00900F5CF06F00900F5CF0B
:100D960007F031EC01F000C0D8F101C0D9F102C072
:100DA600DAF103C0DBF1B5D7D8C100F0D9C101F043
:0A0DB600DAC102F0DBC103F0120005
:100DC000C60E046E010E056E030E0424E96E000EBD
:100DD0000520EA6E7E0EEE5C006E016A000E015A7E
:100DE000CAC1E1FFCBC1E2FF00C0E6FF01C0E6FFE0
:100DF000030E0424E16E000E0520E26E7E0EE66E08
:100E0000C6C100F0C7C101F0C8C102F0C9C103F0FA
:020E10001200CE
:100E12000101C6BF02D0819E01D0818EC6BD02D023
:100E2200819C01D0818CC6BB02D0819A01D0818A7B
:100E3200C6B902D0819801D081888CB102D0818458
:100E420001D08194818670DE8196C6B702D0819EE0
:100E520001D0818EC6B502D0819C01D0818CC6B3EF
:100E620002D0819A01D0818AC6B102D0819801D084
:100E720081888CB102D0818401D08194818654DE34
:0E0E820081968CA102D056DE01D0B2DD1200A6
:100E9000C60E0101CC6F010ECD6F030ECC25D96EAD
:100EA000000ECD21DA6EDE50CA25016E000ECB2178
:100EB000026E01C0CAF102C0CBF1800E0218006EB2
:100EC000800E005C02E1000E015C05E2006A016A2E
:100ED000026A036A1200800E006E800ECB19005C5D
:100EE00002E1CA51FF0825E2046A056A066A076A38
:100EF000C6C100F0C7C101F0C8C102F0C9C103F00A
:100F000053DC010ED8B0000E006E005209E0FF0E57
:100F1000006EFF0E016EFF0E026EFF0E036E1200DA
:100F2000FF0E006EFF0E016E7F0E026EFF0E036E4F
:100F30001200030ECC25E16E000ECD21E26ECAC177
:100F4000E6FFC6C100F0C7C101F0C8C102F0C9C1C7
:040F500003F0120098
:100F54000101CE6B046A056A066A076AC6C100F01D
:100F6400C7C101F0C8C102F0C9C103F01BDC010E06
:100F7400D8B0000E006E005203E0C87F010ECE6FA1
:100F8400C6C100F0C7C101F0C8C102F0C9C103F075
:100F9400830E046EF90E056E220E066E7C0E076E2D
:100FA40044EC03F000C0C6F101C0C7F102C0C8F1AF
:100FB40003C0C9F100C0CFF101C0D0F102C0D1F12A
:100FC40003C0D2F119DD00C004F001C005F002C075
:100FD40006F003C007F0C6C100F0C7C101F0C8C1E4
:100FE40002F0C9C103F041EC03F0000E046E000EE0
:100FF400056E000E066E810E076E44EC03F000C011
:10100400C6F101C0C7F102C0C8F103C0C9F100C0F4
:1010140004F001C005F002C006F003C007F0000EA2
:10102400006E000E016E000E026E800E036ED4EC94
:1010340003F0010ED8B0000E006E005220E0000E46
:10104400046E000E056E000E066E800E076EC6C19D
:1010540000F0C7C101F0C8C102F0C9C103F041ECFE
:1010640003F000C0C6F101C0C7F102C0C8F103C05B
:10107400C9F10101CE53010ED8A4000ECE6FC6C132
:1010840004F0C7C105F0C8C106F0C9C107F0000EDD
:10109400006E000E016E000E026E7F0E036ED4EC25
:1010A40003F0010ED8B0000E006E00521AE0C6C163
:1010B40004F0C7C105F0C8C106F0C9C107F0000EAD
:1010C400006E000E016E000E026E800E036E41EC87
:1010D40003F000C0C6F101C0C7F102C0C8F103C0EB
:1010E400C9F10101C6C100F0C7C101F0C8C102F0D5
:1010F400C9C103F0C6C104F0C7C105F0C8C106F0F8
:10110400C9C107F044EC03F000C0CAF101C0CBF13F
:1011140002C0CCF103C0CDF100C0CFF101C0D0F1C9
:1011240002C0D1F103C0D2F19F0ED36F230ED46F4E
:10113400000ED56F040ED66F000ED76FC2DDC6C188
:1011440004F0C7C105F0C8C106F0C9C107F044ECFA
:1011540003F000C0C6F101C0C7F102C0C8F103C06A
:10116400C9F1CAC1CFF1CBC1D0F1CCC1D1F1CDC14C
:10117400D2F1B30ED36F230ED46F000ED56F030ECE
:10118400D66F000ED76F9DDD00C004F001C005F0DE
:1011940002C006F003C007F0C6C100F0C7C101F0E9
:1011A400C8C102F0C9C103F0CFDC00C0C6F101C060
:1011B400C7F102C0C8F103C0C9F10101CE530DE06B
:1011C400000EC619006E000EC719016E800EC819F4
:1011D400026E000EC919036E1200C6C100F0C7C129
:0C11E40001F0C8C102F0C9C103F0120004
:1011F00003500718D8A40CEF09F002500618D8A421
:101200000CEF09F001500518D8A40CEF09F00050BC
:0E1210000418D8B4D8841200D894120012002A
:0E121E0001018C91B7C1C6F1F5DD8C81120083
:10122C00B7C104F0B8C105F0B9C106F0BAC107F0F6
:10123C00DB0E006E0F0E016E490E026E800E036EF9
:10124C00D4EC03F0010ED8B0000E006E00521CE07E
:10125C00E40E046ECB0E056E160E066E810E076E36
:10126C00B7C100F0B8C101F0B9C102F0BAC103F0C6
:10127C0041EC03F000C0C6F101C0C7F102C0C8F1D7
:10128C0003C0C9F161DE1200B7C100F0B8C101F0B2
:10129C00B9C102F0BAC103F0DB0E046E0F0E056E7D
:1012AC00490E066E7F0E076E31EC01F000C0C6F1E0
:1012BC0001C0C7F102C0C8F103C0C9F145DE12007C
:1012CC0000C008F00B6A0C6A9E0E036E0A6A026A72
:0E12DC00016A006A020E0C6E32EC00F0120085
:0E12EA00ACB202D00000FCD7B7C1ADFF1200BD
:1012F800B7C104F0B8C105F0B9C106F0BAC107F02A
:10130800006A016A026A036AD4EC03F0000ED8B0DE
:10131800010E006E005205E0006A016A026A036A63
:101328001200B7C1BBF1B8C1BCF1B9C1BDF1BAC1B6
:10133800BEF1000E046E000E056E000E066E7F0EE6
:10134800076EB7C100F0B8C101F0B9C102F0BAC167
:1013580003F0D4EC03F0010ED8B0000E006E00527A
:101368001AE0BBC104F0BCC105F0BDC106F0BEC1A6
:1013780007F0000E006E000E016E000E026E7F0E6A
:10138800036EA6EC05F000C0BBF101C0BCF102C0C1
:10139800BDF103C0BEF1BBC1C6F1BCC1C7F1BDC13F
:1013A800C8F1BEC1C9F1C40E0101CA6F010ECB6FED
:1013B80003DD00C0BBF101C0BCF102C0BDF103C038
:1013C800BEF100C0C6F101C0C7F102C0C8F103C038
:1013D800C9F1C4C1CAF1C5C1CBF1CB33CA33CB9F64
:1013E800CBBDCB8F51DD00C0BBF101C0BCF102C049
:1013F800BDF103C0BEF1000E046E000E056E000EB6
:10140800066E7F0E076EB7C100F0B8C101F0B9C112
:1014180002F0BAC103F0D4EC03F0010ED8B0000E0C
:10142800006E00521AE0BBC104F0BCC105F0BDC19A
:1014380006F0BEC107F0000E006E000E016E000E31
:10144800026E7F0E036EA6EC05F000C0BBF101C072
:10145800BCF102C0BDF103C0BEF1140E0101C36F9F
:10146800BBC104F0BCC105F0BDC106F0BEC107F0A8
:10147800B7C100F0B8C101F0B9C102F0BAC103F0B8
:10148800A6EC05F0BBC104F0BCC105F0BDC106F077
:10149800BEC107F031EC01F0000E046E000E056EBF
:1014A800000E066E800E076EA6EC05F000C0BFF1B8
:1014B80001C0C0F102C0C1F103C0C2F1BBC104F058
:1014C800BCC105F0BDC106F0BEC107F08DDE010E3E
:1014D800D8A4000E006E005201E00CD0BFC1BBF1D1
:1014E800C0C1BCF1C1C1BDF1C2C1BEF10101C30798
:1014F800C353B6E1BBC100F0BCC101F0BDC102F0ED
:06150800BEC103F0120059
:10150E00086A080E0C6E003408360450085ED8B017
:0E151E0002D00826D89000360C2EF5D7120009
:10152C00B7C104F0B8C105F004C002F005C003F067
:10153C00044A052AB9C100F0BAC101F00101B94B46
:10154C00BA2B00C0E9FF01C0EAFF02C0E1FF03C0F3
:10155C00E2FFEECFE6FF02C0E9FF03C0EAFFEE5266
:0E156C0001E0E2D7B7C100F0B8C101F01200F3
:10157A0010D0800E0101916F1AD0C00E916F17D052
:10158A00940E916F14D0D40E916F11D0800E916F7A
:10159A000ED001019151010AECE09151020AEDE0ED
:1015AA009151030AEDE09151040AEDE0EFD792055B
:1015BA00006E9151002600C091F100C0C6F124DCF2
:1015CA008C91956B95519325E96E000E9421EA6EE4
:1015DA00EE520BE095519325E96E000E9421EA6EC6
:0E15EA00EECFB7F117DE952BEDD78C811200F6
:1015F8000101A76BA86B91C199F192C19AF193C1AE
:101608009BF194C19CF19C51FF0A08E19B51FF0A90
:1016180005E19A51FF0A02E19951FF0A13E195C1C8
:10162800B7F196C1B8F14E0E9D6F610E9E6F4E0ECA
:101638009F6FA06B9D0EB96F010EBA6F73DF030E1B
:10164800006E1200010E976F9BAF0AD09B7F972BFD
:1016580095C1E1FF96C1E2FF2D0EE66E954B962BE4
:10166800000E006E9C1908E100509B1905E100501E
:101678009A1902E19951000A0EE195C1B7F196C194
:10168800B8F1300EA16FA26BA10EB96F010EBA6F3F
:1016980049DF006A12009C51FF0A08E19B51000AC9
:1016A80005E19A51000A02E19951000A13E195C136
:1016B800B7F196C1B8F1490EA36F4E0EA46F460E4E
:1016C800A56FA66BA30EB96F010EBA6F2BDF97C17A
:1016D80000F01200000E046E000E056E000E066E7D
:1016E8007F0E076E99C100F09AC101F09BC102F00C
:1016F8009CC103F0D4EC03F0010ED8B0000E006ECC
:1017080000521CE099C100F09AC101F09BC102F09F
:101718009CC103F0000E046E000E056E200E066ECE
:10172800820E076E44EC03F000C099F101C09AF1F3
:1017380002C09BF103C09CF1A807CCD7000E046E31
:10174800000E056E200E066E820E076E99C100F01F
:101758009AC101F09BC102F09CC103F0D4EC03F0E4
:10176800000ED8B0010E006E00521CE099C100F0C6
:101778009AC101F09BC102F09CC103F0CD0E046E2A
:10178800CC0E056E4C0E066E7B0E076E44EC03F015
:1017980000C099F101C09AF102C09BF103C09CF10D
:1017A800A82BCCD7FF0E9915056EFF0E9A15066E5D
:1017B8007F0E9B15076E000E9C15086E05C000F085
:1017C80006C001F007C002F008C003F00036009020
:1017D800013602360336000E9917000E9A17000ECE
:1017E8009B17FF0E9C170050991301509A13025033
:1017F8009B1303509C137F0E9C5D006E00C098F1F4
:10180800010E9C6F00C004F099C100F09AC101F06C
:101818009BC102F09CC103F0045007E00036009021
:10182800013602360336FF0FF8D700C099F101C020
:101838009AF102C09BF103C09CF195C1E1FF96C1EA
:10184800E2FF9C51300FE66E954B962B800EA8193F
:10185800006E800E010A005C08E3800E060A006E26
:10186800800EA819005C01E30AD095C1E1FF96C17A
:10187800E2FF2E0EE66E954B962B010EA76F060E15
:10188800986F9851000A54E09C6B99C100F09AC176
:1018980001F09BC102F09CC103F0003600900136B4
:1018A8000236033600360090013602360336995167
:1018B80000269A5101229B5102229C51032200C00A
:1018C80099F101C09AF102C09BF103C09CF199C142
:1018D80000F09AC101F09BC102F09CC103F00036F0
:1018E800009001360236033600C099F101C09AF122
:1018F80002C09BF103C09CF195C1E1FF96C1E2FFD4
:101908009C51300FE66E954B962BA751000A0EE1BD
:10191800A807A851000A0AE195C1E1FF96C1E2FFB4
:101928002E0EE66E954B962B010EA76F9807A9D73A
:10193800FF0E9525E96EFF0E9621EA6EEE50300AED
:1019480005E1010E955F000E965BF2D7FF0E952517
:10195800E96EFF0E9621EA6EEE502E0A04E1010EA2
:10196800955F000E965BA851000A3DE095C1E1FF26
:1019780096C1E2FF650EE66E954B962B800EA81970
:10198800006E800E000A005C0BE295C1E1FF96C173
:10199800E2FF2D0EE66E954B962BA8510008A86F16
:1019A800A8C198F1A85109080EE20A0E046E98C160
:1019B80000F0A9DD95C1E1FF96C1E2FF0050300FAC
:1019C800E66E954B962B0A0E046E98C100F09BDDCF
:1019D80008C000F095C1E1FF96C1E2FF0050300F4A
:1019E800E66E954B962B95C1E1FF96C1E2FFE66A3C
:0419F800006A12006F
:1019FC000900F5CFE6FF0006FBE10106F9E1120054
:101A0C00939693949398939A939C939E8196819496
:101A1C00819E819C819A81989BEC05F09BEC05F052
:101A2C009BEC05F0818A8188818695EC05F0819686
:101A3C009BEC05F0818695EC05F081969BEC05F00E
:101A4C00818695EC05F081969BEC05F0819881865A
:101A5C0095EC05F081969BEC05F0818695EC05F0F4
:101A6C008196819A818E818695EC05F081969BEC0E
:101A7C0005F0819E8188818695EC05F08196819890
:101A8C00818695EC05F081969BEC05F0818695ECB2
:101A9C0005F081968188818695EC05F081969BEC0A
:101AAC0005F08198818695EC05F08196818E818C6C
:101ABC00818A8188818695EC05F081969BEC05F0F6
:061ACC0001018C811200F3
:101AD2000101946B91C1E9FF92C1EAFFEECF93F14C
:101AE2009351000A0FE093C1B7F175EC09F00101BF
:101AF200942B94519125E96E000E9221EA6EEECF5D
:061B020093F1EED7120082
:101B08000101A76BA86BA96BAA6BAB6BAC6BAD6B38
:101B1800AE6BAF6BB06BB16BB26BDB0E006E0F0EC2
:101B2800016E490E026E810E036E91C104F092C1DE
:101B380005F093C106F094C107F044EC03F0000EE1
:101B4800046E000E056E7A0E066E8C0E076EA6ECFD
:101B580005F000C095F101C096F102C097F103C0ED
:101B680098F100C0B7F101C0B8F102C0B9F103C0E3
:101B7800BAF116EC09F000C099F101C09AF102C05F
:101B88009BF103C09CF195C1C6F196C1C7F197C1FD
:101B9800C8F198C1C9F1AAEC07F000C09DF101C0D5
:101BA8009EF102C09FF103C0A0F1000E006E000E6E
:101BB800016E000E026E800E036E99C104F09AC188
:101BC80005F09BC106F09CC107F044EC03F000C08F
:101BD800A1F101C0A2F102C0A3F103C0A4F1A56B59
:101BE800A66B010EA65D02E1000EA55D57E2A1C13C
:101BF80000F0A2C101F0A3C102F0A4C103F0ABC17F
:101C080004F0ACC105F0ADC106F0AEC107F044EC7C
:101C180003F0AFC104F0B0C105F0B1C106F0B2C124
:101C280007F041EC03F000C0B3F101C0B4F102C009
:101C3800B5F103C0B6F15C0EA525006E000EA62115
:101C4800016E00C0E9FF01C0EAFFEECF00F066ECCC
:101C580009F0B3C104F0B4C105F0B5C106F0B6C1CE
:101C680007F031EC01F000C0A7F101C0A8F102C0F3
:101C7800A9F103C0AAF1ABC1AFF1ACC1B0F1ADC1DC
:101C8800B1F1AEC1B2F100C0ABF101C0ACF102C01C
:101C9800ADF103C0AEF1A54BA62BA3D7AFC100F0A1
:101CA800B0C101F0B1C102F0B2C103F099C104F0B2
:101CB8009AC105F09BC106F09CC107F044EC03F003
:101CC80000C004F001C005F002C006F003C007F030
:101CD800ABC100F0ACC101F0ADC102F0AEC103F080
:101CE80041EC03F0000E046E000E056E000E066E49
:101CF800870E076EA6EC05F000C0A7F101C0A8F199
:101D080002C0A9F103C0AAF1AFC100F0B0C101F04F
:101D1800B1C102F0B2C103F09DC104F09EC105F04B
:101D28009FC106F0A0C107F044EC03F0000E046E5A
:101D3800000E056E000E066E870E076EA6EC05F007
:101D480000C0ABF101C0ACF102C0ADF103C0AEF10F
:101D5800A7C100F0A8C101F0A9C102F0AAC103F00F
:101D6800A7C104F0A8C105F0A9C106F0AAC107F0EF
:101D780044EC03F000C0B3F101C0B4F102C0B5F106
:101D880003C0B6F1ABC100F0ACC101F0ADC102F0C7
:101D9800AEC103F0ABC104F0ACC105F0ADC106F0B3
:101DA800AEC107F044EC03F0B3C104F0B4C105F0D0
:101DB800B5C106F0B6C107F031EC01F000C0B7F1CB
:101DC80001C0B8F102C0B9F103C0BAF17CEC09F066
:101DD80000C0AFF101C0B0F102C0B1F103C0B2F16F
:021DE8001200E7
:101DEA00EA0E0101806F120E816FB70E826F010E2B
:101DFA00836FFF0E7C6FFF0E7D6F000E7E6F000EED
:101E0A007F6FFF0E886FFF0E896F000E8A6F000EBC
:101E1A008B6FFF0E846FFF0E856F000E866F000EAC
:101E2A00876FAC8A900EAB6E948E949C9EAA03D058
:081E3A00AECF00F0FBD712004F
:101E42000101926B936B946B956B966B976B916B95
:101E5200080E915D4CE291C100F0000E016E003659
:101E6200009001360036009001365C0E0024E96EC7
:101E7200010E0120EA6EEECF00F0EECF01F0EECFC0
:101E820002F0EECF03F000C004F001C005F002C082
:101E920006F003C007F092C100F093C101F094C1B3
:101EA20002F095C103F0D4EC03F0010ED8B0000E9D
:101EB200006E00521AE091C100F0000E016E003671
:101EC200009001360036009001365C0E0024E96E67
:101ED200010E0120EA6EEECF92F1EECF93F1EECF3A
:101EE20094F1EECF95F191C196F1912BB1D7926B0E
:101EF200936B946B956B916B080E915D4FE29151D0
:101F020096194AE091C100F0000E016E0036009071
:101F120001360036009001365C0E0024E96E010E97
:101F22000120EA6EEECF00F0EECF01F0EECF02F02C
:101F3200EECF03F000C004F001C005F002C006F0CD
:101F420003C007F092C100F093C101F094C102F006
:101F520095C103F0D4EC03F0010ED8B0000E006E70
:101F620000521AE091C100F0000E016E003600909E
:101F720001360036009001365C0E0024E96E010E37
:101F82000120EA6EEECF92F1EECF93F1EECF94F113
:101F9200EECF95F191C197F1912BAED79651975D06
:101FA20006E296C191F197C196F191C197F10A0E9D
:101FB2009703F3CF00F000C097F10050962730D07E
:101FC200310E006E1200320E006E1200330E006EE1
:101FD2001200410E006E1200340E006E1200350E19
:101FE200006E1200360E006E1200420E006E1200DB
:101FF200370E006E1200380E006E1200390E006E9F
:102002001200430E006E12002A0E006E1200300EF5
:10201200006E1200230E006E1200440E006E1200BB
:102022009651280ACDE09651320ACDE096513C0AEB
:10203200CDE09651460ACDE09651290ACDE096515F
:10204200330ACDE096513D0ACDE09651470ACDE0E4
:1020520096512A0ACDE09651340ACDE096513E0AB5
:10206200CDE09651480ACDE096512B0ACDE096512B
:10207200350ACDE096513F0ACDE09651490ACDE0AE
:06208200200E006E1200AA
:1020880010D0800E0101916F1AD0C00E916F17D039
:10209800940E916F14D0D40E916F11D0800E916F61
:1020A8000ED001019151010AECE09151020AEDE0D4
:1020B8009151030AEDE09151040AEDE0EFD7920542
:1020C800006E9151002600C091F18C8100C0C6F1CC
:1020D80009EC07F08C9193C1C6F109EC07F08C81EB
:0220E8001200E4
:1020EA00E2EC11F00101906B936A010E946E89DCA7
:1020FA00010EC66F09EC07F0010E916F010E926F87
:10210A00170E936F000E946FBDEC0AF0020E916FDA
:10211A00010E926F150E936F000E946FBDEC0AF0CC
:10212A00810EAF6EAC845CDE01018C938CA3EDD082
:10213A00000E916F400E926F2E0E936F880E946F61
:10214A00DEDC00C05CF101C05DF102C05EF103C0DB
:10215A005FF1000E0101916F800E926F400E936F36
:10216A00880E946FCCDC00C060F101C061F102C03E
:10217A0062F103C063F1000E0101916F000E926FCC
:10218A00550E936F880E946FBADC00C064F101C0DB
:10219A0065F102C066F103C067F1000E0101916F9B
:1021AA00400E926F6B0E936F880E946FA8DC00C07E
:1021BA0068F101C069F102C06AF103C06BF1000E57
:1021CA000101916F200E926F170E936F890E946F13
:1021DA0096DC00C06CF101C06DF102C06EF103C063
:1021EA006FF1000E0101916F000E926F270E936F2F
:1021FA00890E946F84DC00C070F101C071F102C0D5
:10220A0072F103C073F1000E0101916FA00E926F7B
:10221A00380E936F890E946F72DC00C074F101C09E
:10222A0075F102C076F103C077F1000E0101916FDA
:10223A00200E926F4C0E936F890E946F60DC00C073
:10224A0078F101C079F102C07AF103C07BF1F4DDC3
:10225A0000C08FF18C93460E916F000E926F34DCA2
:10226A008D6B8E6B000E8E5D02E1080E8D5D2CE289
:10227A008DC100F08EC101F00036009001360036A3
:10228A00009001365C0E0024E96E010E0120EA6E10
:10229A00EECF91F1EECF92F1EECF93F1EECF94F132
:1022AA003F0E956F000E966FFCEC0AF0456A3F0EE2
:1022BA00916F000E926F08DC3B0EB76F75EC09F058
:1022CA0001018D4B8E2BCED7230E916F000E926F8C
:1022DA0069EC0DF08FC1B7F175EC09F03C0E010104
:1022EA00916F000E926F69EC0DF08FC1B7F10FEC90
:1022FA0009F0902B90510F0808E2020E916F020E1E
:10230A00926F8FC193F1BBDE906B82A01ED0818049
:10231A008D6B8E6B010E8E5D02E1000E8D5D13E2F8
:10232A005C0E8D25E16E000E8E21E26E000E82B0EB
:10233A00010EE66E630E0D6E0D2EFED70000000034
:0E234A008D4B8E2BE7D78C838190F0D6FFD77A
:1023C40010EE15F0470E006E010E016E580EF66EFB
:0E23D400230EF76E000EF86EFEEC0CF01200F9
:022358003E0045
:0C235A0044544D46204465636F646500E8
:102366000D0A526573756C7461646F2066696C74CE
:09237600726167656D3A0D0A0001
:03237F000D0A0044
:072382000000000000000054
:10238900526573756C7461646F20476F6572747AF6
:06239900656C3A0D0A001C
:10239F00ECF34A903595958F17C15C8BFDDBED867D
:0423AF0072B3338052
:1023B3002B3401907F9D308BE7FF59850000007F10
:020000040030CA
:0E0000000C0E1F1EFF0181FF0FC00FE00F400E
:00000001FF
