:04000000BFEF01F05D
:1000080000C015F0F2A415D02A4A2B2A2B501D5CEB
:1000180002E12A501C5C03E22A6A2B6A827282B2CD
:1000280004D082B402D0829001D082809A0ED66E1B
:10003800F2949EA017D02C4A2D2A2D501B5C02E169
:100048002C501A5C03E22C6A2D6A827482B204D0A6
:1000580082B402D0829001D082809A0ECE6EFF0EBA
:0A006800CF6E9E9015C000F011004D
:1000720016D0FF0E816EEF0E81161ED0FF0E816E1E
:10008200DF0E811619D0FF0E816EBF0E811614D0BD
:10009200FF0E816E7F0E81160FD0006A120037505C
:1000A200010AE7E03750020AE9E03750030AEBE0C1
:1000B2003750040AEDE0F1D7020E0B6E450E0C6EBE
:1000C200A90E0D6E0D2EFED70C2EFCD70B2EFAD7D5
:1000D2000000000081CF01F00F0E01160ED0010EBC
:1000E200006E1200020E006E1200030E006E12006D
:1000F200040E006E1200006A12000150070AEFE0BF
:1001020001500B0AEFE001500D0AEFE001500E0A18
:06011200EFE0F1D712003E
:10011800F60E1E6E010E1F6E330E206E000E216E3F
:10012800FF0E226EFF0E236E000E246E000E256E4B
:10013800FF0E266EFF0E276E000E286E000E296E2B
:10014800FF0E166EFF0E176E000E186E000E196E5B
:10015800AC8A900EAB6E948E949C9EAA03D0AECFC0
:0601680000F0FBD71200BD
:10016E00056A080E055C3DE205C000F0000E016E4A
:10017E00026E036E003600900136023603365E0EB6
:10018E000024F66E050E0120F76E000E0220F86EAA
:10019E000900F5CF01F00900F5CF02F00250381832
:1001AE0002E1375001181BE105C000F0000E016E90
:1001BE00026E036E003600900136023603364E0E86
:1001CE000024F66E050E0120F76E000E0220F86E6A
:1001DE000900F5CF00F00900F5CF01F01200052A55
:0801EE00C0D7006A016A12008B
:0E01F600ACB202D00000FCD733C0ADFF120047
:10020400356A010E336E050E335C15E233C037F0E8
:100214002EDF00C034F00050000A0BE033C000F0C1
:1002240000360090003600900036009000503424D0
:10023400356E332AE8D732D0310E006E1200340EF8
:10024400006E1200370E006E12002A0E006E1200AD
:10025400320E006E1200350E006E1200380E006E63
:100264001200300E006E1200330E006E1200360EB5
:10027400006E1200390E006E1200230E006E120082
:10028400410E006E1200420E006E1200430E006E0C
:100294001200440E006E1200006A12003550090A62
:1002A400CBE035500A0ACBE035500B0ACBE0355091
:1002B4000C0ACBE03550110ACBE03550120ACBE0E2
:1002C4003550130ACBE03550140ACBE03550190AE7
:1002D400CBE035501A0ACBE035501B0ACBE0355041
:1002E4001C0ACBE03550210ACBE03550220ACBE082
:1002F4003550230ACBE03550240ACBE0CDD7120089
:100304000F0E936E946AC00EF26EC80ED56E010E77
:0E031400CD6E9D90810EAF6EAC84FCDE1200AB
:100322000900F5CFE6FF0006FBE10106F9E1120044
:1003320033C037F034C038F019DF00C01CF001C000
:100342001DF035C037F036C038F010DF00C01AF0AB
:1003520001C01BF0F28A9D80020E0B6E450E0C6EE0
:10036200A90E0D6E0D2EFED70C2EFCD70B2EFAD732
:0C03720000000000F29A9D9082901200A2
:10037E00326AC1DF40DF00C032F000C033F034DF3C
:10038E003252D8B4DBD090D0B90E2E6E020E2F6E34
:10039E00B90E306E040E316EBBD0B90E2E6E020E3B
:1003AE002F6E380E306E050E316EB2D0B90E2E6E27
:1003BE00020E2F6EC50E306E050E316EA9D0B90E1F
:1003CE002E6E020E2F6E610E306E060E316EA0D0A6
:1003DE00020E2E6E030E2F6EB90E306E040E316E9F
:1003EE0097D0020E2E6E030E2F6E380E306E050E47
:1003FE00316E8ED0020E2E6E030E2F6EC50E306E27
:10040E00050E316E85D0020E2E6E030E2F6E610E0E
:10041E00306E060E316E7CD0540E2E6E030E2F6E85
:10042E00B90E306E040E316E73D0540E2E6E030E56
:10043E002F6E380E306E050E316E6AD0540E2E6E43
:10044E00030E2F6EC50E306E050E316E61D0540E3A
:10045E002E6E030E2F6E610E306E060E316E58D05C
:10046E00AD0E2E6E030E2F6EB90E306E040E316E63
:10047E004FD0AD0E2E6E030E2F6E380E306E050E53
:10048E00316E46D0AD0E2E6E030E2F6EC50E306E33
:10049E00050E316E3DD0AD0E2E6E030E2F6E610E1B
:1004AE00306E060E316E34D03250310AD8B46CD75D
:1004BE003250320AD8B471D73250330AD8B476D704
:1004CE003250410AD8B47BD73250340A81E03250D0
:1004DE00350A87E03250360A8DE03250420A93E0F8
:1004EE003250370A99E03250380A9FE03250390ABA
:1004FE00A5E03250430AABE032502A0AB1E0325046
:10050E00300AB7E03250230ABDE03250440AC3E04D
:10051E002EC033F02FC034F030C035F031C036F07D
:10052E0001DF020E0B6E040E0C6EBA0E0D6E0D2E4A
:10053E00FED70C2EFCD70B2EFAD700001BD7FFD7F9
:10054E001B001800160014000F000E000D000B000B
:10055E00B90202035403AD03B9043805C50561069B
:020000040030CA
:0E0000003F0E3F1EFF0181FF0FC00FE00F40BB
:00000001FF
